{
  "contractName": "DAO",
  "abi": [
    {
      "inputs": [
        {
          "internalType": "uint256",
          "name": "_contributionTimeEnd",
          "type": "uint256"
        },
        {
          "internalType": "uint256",
          "name": "_voteTime",
          "type": "uint256"
        },
        {
          "internalType": "uint256",
          "name": "_quorum",
          "type": "uint256"
        }
      ],
      "stateMutability": "nonpayable",
      "type": "constructor"
    },
    {
      "inputs": [],
      "name": "availableFunds",
      "outputs": [
        {
          "internalType": "uint256",
          "name": "",
          "type": "uint256"
        }
      ],
      "stateMutability": "view",
      "type": "function",
      "constant": true
    },
    {
      "inputs": [],
      "name": "contributionTimeEnd",
      "outputs": [
        {
          "internalType": "uint256",
          "name": "",
          "type": "uint256"
        }
      ],
      "stateMutability": "view",
      "type": "function",
      "constant": true
    },
    {
      "inputs": [
        {
          "internalType": "uint256",
          "name": "",
          "type": "uint256"
        }
      ],
      "name": "investorList",
      "outputs": [
        {
          "internalType": "address",
          "name": "",
          "type": "address"
        }
      ],
      "stateMutability": "view",
      "type": "function",
      "constant": true
    },
    {
      "inputs": [
        {
          "internalType": "address",
          "name": "",
          "type": "address"
        },
        {
          "internalType": "uint256",
          "name": "",
          "type": "uint256"
        }
      ],
      "name": "isVoted",
      "outputs": [
        {
          "internalType": "bool",
          "name": "",
          "type": "bool"
        }
      ],
      "stateMutability": "view",
      "type": "function",
      "constant": true
    },
    {
      "inputs": [],
      "name": "manager",
      "outputs": [
        {
          "internalType": "address",
          "name": "",
          "type": "address"
        }
      ],
      "stateMutability": "view",
      "type": "function",
      "constant": true
    },
    {
      "inputs": [],
      "name": "nextProposalId",
      "outputs": [
        {
          "internalType": "uint256",
          "name": "",
          "type": "uint256"
        }
      ],
      "stateMutability": "view",
      "type": "function",
      "constant": true
    },
    {
      "inputs": [
        {
          "internalType": "address",
          "name": "",
          "type": "address"
        }
      ],
      "name": "numOfshares",
      "outputs": [
        {
          "internalType": "uint256",
          "name": "",
          "type": "uint256"
        }
      ],
      "stateMutability": "view",
      "type": "function",
      "constant": true
    },
    {
      "inputs": [
        {
          "internalType": "uint256",
          "name": "",
          "type": "uint256"
        }
      ],
      "name": "proposals",
      "outputs": [
        {
          "internalType": "uint256",
          "name": "id",
          "type": "uint256"
        },
        {
          "internalType": "string",
          "name": "description",
          "type": "string"
        },
        {
          "internalType": "uint256",
          "name": "amount",
          "type": "uint256"
        },
        {
          "internalType": "address payable",
          "name": "receipient",
          "type": "address"
        },
        {
          "internalType": "uint256",
          "name": "votes",
          "type": "uint256"
        },
        {
          "internalType": "uint256",
          "name": "end",
          "type": "uint256"
        },
        {
          "internalType": "bool",
          "name": "isExecuted",
          "type": "bool"
        }
      ],
      "stateMutability": "view",
      "type": "function",
      "constant": true
    },
    {
      "inputs": [],
      "name": "quorum",
      "outputs": [
        {
          "internalType": "uint256",
          "name": "",
          "type": "uint256"
        }
      ],
      "stateMutability": "view",
      "type": "function",
      "constant": true
    },
    {
      "inputs": [],
      "name": "totalsShares",
      "outputs": [
        {
          "internalType": "uint256",
          "name": "",
          "type": "uint256"
        }
      ],
      "stateMutability": "view",
      "type": "function",
      "constant": true
    },
    {
      "inputs": [],
      "name": "voteTime",
      "outputs": [
        {
          "internalType": "uint256",
          "name": "",
          "type": "uint256"
        }
      ],
      "stateMutability": "view",
      "type": "function",
      "constant": true
    },
    {
      "inputs": [
        {
          "internalType": "address",
          "name": "",
          "type": "address"
        },
        {
          "internalType": "address",
          "name": "",
          "type": "address"
        }
      ],
      "name": "withdrawlStatus",
      "outputs": [
        {
          "internalType": "bool",
          "name": "",
          "type": "bool"
        }
      ],
      "stateMutability": "view",
      "type": "function",
      "constant": true
    },
    {
      "inputs": [],
      "name": "contribution",
      "outputs": [],
      "stateMutability": "payable",
      "type": "function",
      "payable": true
    },
    {
      "inputs": [
        {
          "internalType": "uint256",
          "name": "_amount",
          "type": "uint256"
        }
      ],
      "name": "reedemShare",
      "outputs": [],
      "stateMutability": "nonpayable",
      "type": "function"
    },
    {
      "inputs": [
        {
          "internalType": "uint256",
          "name": "_amount",
          "type": "uint256"
        },
        {
          "internalType": "address",
          "name": "_to",
          "type": "address"
        }
      ],
      "name": "transferShare",
      "outputs": [],
      "stateMutability": "nonpayable",
      "type": "function"
    },
    {
      "inputs": [
        {
          "internalType": "string",
          "name": "_description",
          "type": "string"
        },
        {
          "internalType": "uint256",
          "name": "_amount",
          "type": "uint256"
        },
        {
          "internalType": "address payable",
          "name": "_resceipient",
          "type": "address"
        }
      ],
      "name": "createProposal",
      "outputs": [],
      "stateMutability": "nonpayable",
      "type": "function"
    },
    {
      "inputs": [
        {
          "internalType": "uint256",
          "name": "_proposalId",
          "type": "uint256"
        }
      ],
      "name": "voteProposal",
      "outputs": [],
      "stateMutability": "nonpayable",
      "type": "function"
    },
    {
      "inputs": [
        {
          "internalType": "uint256",
          "name": "_proposalId",
          "type": "uint256"
        }
      ],
      "name": "executeProposal",
      "outputs": [],
      "stateMutability": "nonpayable",
      "type": "function"
    },
    {
      "inputs": [],
      "name": "ProposalLists",
      "outputs": [
        {
          "components": [
            {
              "internalType": "uint256",
              "name": "id",
              "type": "uint256"
            },
            {
              "internalType": "string",
              "name": "description",
              "type": "string"
            },
            {
              "internalType": "uint256",
              "name": "amount",
              "type": "uint256"
            },
            {
              "internalType": "address payable",
              "name": "receipient",
              "type": "address"
            },
            {
              "internalType": "uint256",
              "name": "votes",
              "type": "uint256"
            },
            {
              "internalType": "uint256",
              "name": "end",
              "type": "uint256"
            },
            {
              "internalType": "bool",
              "name": "isExecuted",
              "type": "bool"
            }
          ],
          "internalType": "struct DAO.Proposal[]",
          "name": "",
          "type": "tuple[]"
        }
      ],
      "stateMutability": "view",
      "type": "function",
      "constant": true
    }
  ],
  "bytecode": "0x60806040523480156200001157600080fd5b50604051620028b1380380620028b1833981810160405281019062000037919062000145565b600081118015620000485750606481105b6200008a576040517f08c379a0000000000000000000000000000000000000000000000000000000008152600401620000819062000202565b60405180910390fd5b610e10836200009a919062000253565b42620000a79190620002b4565b60088190555081600a8190555080600b8190555033600c60006101000a81548173ffffffffffffffffffffffffffffffffffffffff021916908373ffffffffffffffffffffffffffffffffffffffff16021790555050505062000311565b600080fd5b6000819050919050565b6200011f816200010a565b81146200012b57600080fd5b50565b6000815190506200013f8162000114565b92915050565b60008060006060848603121562000161576200016062000105565b5b600062000171868287016200012e565b935050602062000184868287016200012e565b925050604062000197868287016200012e565b9150509250925092565b600082825260208201905092915050565b7f6e6f742076616c69642076616c75650000000000000000000000000000000000600082015250565b6000620001ea600f83620001a1565b9150620001f782620001b2565b602082019050919050565b600060208201905081810360008301526200021d81620001db565b9050919050565b7f4e487b7100000000000000000000000000000000000000000000000000000000600052601160045260246000fd5b600062000260826200010a565b91506200026d836200010a565b9250817fffffffffffffffffffffffffffffffffffffffffffffffffffffffffffffffff0483118215151615620002a957620002a862000224565b5b828202905092915050565b6000620002c1826200010a565b9150620002ce836200010a565b9250827fffffffffffffffffffffffffffffffffffffffffffffffffffffffffffffffff0382111562000306576200030562000224565b5b828201905092915050565b61259080620003216000396000f3fe6080604052600436106101145760003560e01c80636ac1e01f116100a0578063c1188cff11610064578063c1188cff14610386578063dd5fee6f146103af578063e12570c6146103ec578063e65da42914610417578063fd33fbd41461045457610114565b80636ac1e01f146102a1578063807896d5146102ca5780638ee36f05146102f3578063afc8275b14610330578063bcf93dd61461035b57610114565b80631703a018116100e75780631703a018146101eb5780632ab09d141461021657806346fcff4c14610241578063481c6a751461026c57806350520b1f1461029757610114565b8063013cf08b14610119578063039383e61461015c5780630d61b5191461018557806312f9b48e146101ae575b600080fd5b34801561012557600080fd5b50610140600480360381019061013b9190611855565b61047f565b6040516101539796959493929190611986565b60405180910390f35b34801561016857600080fd5b50610183600480360381019061017e9190611a3a565b610576565b005b34801561019157600080fd5b506101ac60048036038101906101a79190611855565b6108d8565b005b3480156101ba57600080fd5b506101d560048036038101906101d09190611855565b610a51565b6040516101e29190611a89565b60405180910390f35b3480156101f757600080fd5b50610200610a90565b60405161020d9190611aa4565b60405180910390f35b34801561022257600080fd5b5061022b610a96565b6040516102389190611aa4565b60405180910390f35b34801561024d57600080fd5b50610256610a9c565b6040516102639190611aa4565b60405180910390f35b34801561027857600080fd5b50610281610aa2565b60405161028e9190611a89565b60405180910390f35b61029f610ac8565b005b3480156102ad57600080fd5b506102c860048036038101906102c39190611b50565b610c94565b005b3480156102d657600080fd5b506102f160048036038101906102ec9190611855565b610eeb565b005b3480156102ff57600080fd5b5061031a60048036038101906103159190611bc4565b61119e565b6040516103279190611c04565b60405180910390f35b34801561033c57600080fd5b506103456111cd565b6040516103529190611aa4565b60405180910390f35b34801561036757600080fd5b506103706111d3565b60405161037d9190611aa4565b60405180910390f35b34801561039257600080fd5b506103ad60048036038101906103a89190611855565b6111d9565b005b3480156103bb57600080fd5b506103d660048036038101906103d19190611c1f565b61148a565b6040516103e39190611c04565b60405180910390f35b3480156103f857600080fd5b506104016114b9565b60405161040e9190611e34565b60405180910390f35b34801561042357600080fd5b5061043e60048036038101906104399190611e56565b6116b4565b60405161044b9190611aa4565b60405180910390f35b34801561046057600080fd5b506104696116cc565b6040516104769190611aa4565b60405180910390f35b60056020528060005260406000206000915090508060000154908060010180546104a890611eb2565b80601f01602080910402602001604051908101604052809291908181526020018280546104d490611eb2565b80156105215780601f106104f657610100808354040283529160200191610521565b820191906000526020600020905b81548152906001019060200180831161050457829003601f168201915b5050505050908060020154908060030160009054906101000a900473ffffffffffffffffffffffffffffffffffffffff16908060040154908060050154908060060160009054906101000a900460ff16905087565b600115156000803373ffffffffffffffffffffffffffffffffffffffff1673ffffffffffffffffffffffffffffffffffffffff16815260200190815260200160002060009054906101000a900460ff16151514610608576040517f08c379a00000000000000000000000000000000000000000000000000000000081526004016105ff90611f2f565b60405180910390fd5b81600160003373ffffffffffffffffffffffffffffffffffffffff1673ffffffffffffffffffffffffffffffffffffffff16815260200190815260200160002054101561068a576040517f08c379a000000000000000000000000000000000000000000000000000000000815260040161068190611f9b565b60405180910390fd5b8160075410156106cf576040517f08c379a00000000000000000000000000000000000000000000000000000000081526004016106c690612007565b60405180910390fd5b81600160003373ffffffffffffffffffffffffffffffffffffffff1673ffffffffffffffffffffffffffffffffffffffff168152602001908152602001600020600082825461071e9190612056565b925050819055506000600160003373ffffffffffffffffffffffffffffffffffffffff1673ffffffffffffffffffffffffffffffffffffffff16815260200190815260200160002054036107c45760008060003373ffffffffffffffffffffffffffffffffffffffff1673ffffffffffffffffffffffffffffffffffffffff16815260200190815260200160002060006101000a81548160ff0219169083151502179055505b81600160008373ffffffffffffffffffffffffffffffffffffffff1673ffffffffffffffffffffffffffffffffffffffff1681526020019081526020016000206000828254610813919061208a565b9250508190555060016000808373ffffffffffffffffffffffffffffffffffffffff1673ffffffffffffffffffffffffffffffffffffffff16815260200190815260200160002060006101000a81548160ff0219169083151502179055506004819080600181540180825580915050600190039060005260206000200160009091909190916101000a81548173ffffffffffffffffffffffffffffffffffffffff021916908373ffffffffffffffffffffffffffffffffffffffff1602179055505050565b3373ffffffffffffffffffffffffffffffffffffffff16600c60009054906101000a900473ffffffffffffffffffffffffffffffffffffffff1673ffffffffffffffffffffffffffffffffffffffff1614610968576040517f08c379a000000000000000000000000000000000000000000000000000000000815260040161095f9061212c565b60405180910390fd5b6000600560008381526020019081526020016000209050600b5460065460648360040154610996919061214c565b6109a091906121d5565b10156109e1576040517f08c379a00000000000000000000000000000000000000000000000000000000081526004016109d890612252565b60405180910390fd5b60018160060160006101000a81548160ff021916908315150217905550806002015460076000828254610a149190612056565b92505081905550610a4d81600201548260030160009054906101000a900473ffffffffffffffffffffffffffffffffffffffff166116d2565b5050565b60048181548110610a6157600080fd5b906000526020600020016000915054906101000a900473ffffffffffffffffffffffffffffffffffffffff1681565b600b5481565b60095481565b60075481565b600c60009054906101000a900473ffffffffffffffffffffffffffffffffffffffff1681565b426008541015610b0d576040517f08c379a0000000000000000000000000000000000000000000000000000000008152600401610b04906122be565b60405180910390fd5b60003411610b50576040517f08c379a0000000000000000000000000000000000000000000000000000000008152600401610b479061232a565b60405180910390fd5b60016000803373ffffffffffffffffffffffffffffffffffffffff1673ffffffffffffffffffffffffffffffffffffffff16815260200190815260200160002060006101000a81548160ff02191690831515021790555034600160003373ffffffffffffffffffffffffffffffffffffffff1673ffffffffffffffffffffffffffffffffffffffff1681526020019081526020016000206000828254610bf6919061208a565b925050819055503460066000828254610c0f919061208a565b925050819055503460076000828254610c28919061208a565b925050819055506004339080600181540180825580915050600190039060005260206000200160009091909190916101000a81548173ffffffffffffffffffffffffffffffffffffffff021916908373ffffffffffffffffffffffffffffffffffffffff160217905550565b3373ffffffffffffffffffffffffffffffffffffffff16600c60009054906101000a900473ffffffffffffffffffffffffffffffffffffffff1673ffffffffffffffffffffffffffffffffffffffff1614610d24576040517f08c379a0000000000000000000000000000000000000000000000000000000008152600401610d1b9061212c565b60405180910390fd5b816007541015610d69576040517f08c379a0000000000000000000000000000000000000000000000000000000008152600401610d6090612007565b60405180910390fd5b6040518060e00160405280600954815260200185858080601f016020809104026020016040519081016040528093929190818152602001838380828437600081840152601f19601f8201169050808301925050505050505081526020018381526020018273ffffffffffffffffffffffffffffffffffffffff16815260200160008152602001600a5442610dfd919061208a565b815260200160001515815250600560006009548152602001908152602001600020600082015181600001556020820151816001019080519060200190610e4492919061171d565b506040820151816002015560608201518160030160006101000a81548173ffffffffffffffffffffffffffffffffffffffff021916908373ffffffffffffffffffffffffffffffffffffffff1602179055506080820151816004015560a0820151816005015560c08201518160060160006101000a81548160ff02191690831515021790555090505060096000815480929190610ee09061234a565b919050555050505050565b600115156000803373ffffffffffffffffffffffffffffffffffffffff1673ffffffffffffffffffffffffffffffffffffffff16815260200190815260200160002060009054906101000a900460ff16151514610f7d576040517f08c379a0000000000000000000000000000000000000000000000000000000008152600401610f7490611f2f565b60405180910390fd5b600060056000838152602001908152602001600020905060001515600260003373ffffffffffffffffffffffffffffffffffffffff1673ffffffffffffffffffffffffffffffffffffffff168152602001908152602001600020600084815260200190815260200160002060009054906101000a900460ff16151514611038576040517f08c379a000000000000000000000000000000000000000000000000000000000815260040161102f90612404565b60405180910390fd5b428160050154101561107f576040517f08c379a000000000000000000000000000000000000000000000000000000000815260040161107690612470565b60405180910390fd5b600015158160060160009054906101000a900460ff161515146110d7576040517f08c379a00000000000000000000000000000000000000000000000000000000081526004016110ce906124dc565b60405180910390fd5b6001600260003373ffffffffffffffffffffffffffffffffffffffff1673ffffffffffffffffffffffffffffffffffffffff168152602001908152602001600020600084815260200190815260200160002060006101000a81548160ff021916908315150217905550600160003373ffffffffffffffffffffffffffffffffffffffff1673ffffffffffffffffffffffffffffffffffffffff16815260200190815260200160002054816004016000828254611193919061208a565b925050819055505050565b60026020528160005260406000206020528060005260406000206000915091509054906101000a900460ff1681565b60085481565b600a5481565b600115156000803373ffffffffffffffffffffffffffffffffffffffff1673ffffffffffffffffffffffffffffffffffffffff16815260200190815260200160002060009054906101000a900460ff1615151461126b576040517f08c379a000000000000000000000000000000000000000000000000000000000815260040161126290611f2f565b60405180910390fd5b80600160003373ffffffffffffffffffffffffffffffffffffffff1673ffffffffffffffffffffffffffffffffffffffff1681526020019081526020016000205410156112ed576040517f08c379a00000000000000000000000000000000000000000000000000000000081526004016112e490611f9b565b60405180910390fd5b806007541015611332576040517f08c379a000000000000000000000000000000000000000000000000000000000815260040161132990612007565b60405180910390fd5b80600160003373ffffffffffffffffffffffffffffffffffffffff1673ffffffffffffffffffffffffffffffffffffffff16815260200190815260200160002060008282546113819190612056565b925050819055506000600160003373ffffffffffffffffffffffffffffffffffffffff1673ffffffffffffffffffffffffffffffffffffffff16815260200190815260200160002054036114275760008060003373ffffffffffffffffffffffffffffffffffffffff1673ffffffffffffffffffffffffffffffffffffffff16815260200190815260200160002060006101000a81548160ff0219169083151502179055505b80600760008282546114399190612056565b925050819055503373ffffffffffffffffffffffffffffffffffffffff166108fc829081150290604051600060405180830381858888f19350505050158015611486573d6000803e3d6000fd5b5050565b60036020528160005260406000206020528060005260406000206000915091509054906101000a900460ff1681565b6060600060016009546114cc9190612056565b67ffffffffffffffff8111156114e5576114e46124fc565b5b60405190808252806020026020018201604052801561151e57816020015b61150b6117a3565b8152602001906001900390816115035790505b5090506000600190505b6009548110156116ac57600560008281526020019081526020016000206040518060e00160405290816000820154815260200160018201805461156a90611eb2565b80601f016020809104026020016040519081016040528092919081815260200182805461159690611eb2565b80156115e35780601f106115b8576101008083540402835291602001916115e3565b820191906000526020600020905b8154815290600101906020018083116115c657829003601f168201915b50505050508152602001600282015481526020016003820160009054906101000a900473ffffffffffffffffffffffffffffffffffffffff1673ffffffffffffffffffffffffffffffffffffffff1673ffffffffffffffffffffffffffffffffffffffff16815260200160048201548152602001600582015481526020016006820160009054906101000a900460ff16151515158152505082828151811061168e5761168d61252b565b5b602002602001018190525080806116a49061234a565b915050611528565b508091505090565b60016020528060005260406000206000915090505481565b60065481565b8073ffffffffffffffffffffffffffffffffffffffff166108fc839081150290604051600060405180830381858888f19350505050158015611718573d6000803e3d6000fd5b505050565b82805461172990611eb2565b90600052602060002090601f01602090048101928261174b5760008555611792565b82601f1061176457805160ff1916838001178555611792565b82800160010185558215611792579182015b82811115611791578251825591602001919060010190611776565b5b50905061179f91906117f8565b5090565b6040518060e00160405280600081526020016060815260200160008152602001600073ffffffffffffffffffffffffffffffffffffffff16815260200160008152602001600081526020016000151581525090565b5b808211156118115760008160009055506001016117f9565b5090565b600080fd5b600080fd5b6000819050919050565b6118328161181f565b811461183d57600080fd5b50565b60008135905061184f81611829565b92915050565b60006020828403121561186b5761186a611815565b5b600061187984828501611840565b91505092915050565b61188b8161181f565b82525050565b600081519050919050565b600082825260208201905092915050565b60005b838110156118cb5780820151818401526020810190506118b0565b838111156118da576000848401525b50505050565b6000601f19601f8301169050919050565b60006118fc82611891565b611906818561189c565b93506119168185602086016118ad565b61191f816118e0565b840191505092915050565b600073ffffffffffffffffffffffffffffffffffffffff82169050919050565b60006119558261192a565b9050919050565b6119658161194a565b82525050565b60008115159050919050565b6119808161196b565b82525050565b600060e08201905061199b600083018a611882565b81810360208301526119ad81896118f1565b90506119bc6040830188611882565b6119c9606083018761195c565b6119d66080830186611882565b6119e360a0830185611882565b6119f060c0830184611977565b98975050505050505050565b6000611a078261192a565b9050919050565b611a17816119fc565b8114611a2257600080fd5b50565b600081359050611a3481611a0e565b92915050565b60008060408385031215611a5157611a50611815565b5b6000611a5f85828601611840565b9250506020611a7085828601611a25565b9150509250929050565b611a83816119fc565b82525050565b6000602082019050611a9e6000830184611a7a565b92915050565b6000602082019050611ab96000830184611882565b92915050565b600080fd5b600080fd5b600080fd5b60008083601f840112611ae457611ae3611abf565b5b8235905067ffffffffffffffff811115611b0157611b00611ac4565b5b602083019150836001820283011115611b1d57611b1c611ac9565b5b9250929050565b611b2d8161194a565b8114611b3857600080fd5b50565b600081359050611b4a81611b24565b92915050565b60008060008060608587031215611b6a57611b69611815565b5b600085013567ffffffffffffffff811115611b8857611b8761181a565b5b611b9487828801611ace565b94509450506020611ba787828801611840565b9250506040611bb887828801611b3b565b91505092959194509250565b60008060408385031215611bdb57611bda611815565b5b6000611be985828601611a25565b9250506020611bfa85828601611840565b9150509250929050565b6000602082019050611c196000830184611977565b92915050565b60008060408385031215611c3657611c35611815565b5b6000611c4485828601611a25565b9250506020611c5585828601611a25565b9150509250929050565b600081519050919050565b600082825260208201905092915050565b6000819050602082019050919050565b611c948161181f565b82525050565b600082825260208201905092915050565b6000611cb682611891565b611cc08185611c9a565b9350611cd08185602086016118ad565b611cd9816118e0565b840191505092915050565b611ced8161194a565b82525050565b611cfc8161196b565b82525050565b600060e083016000830151611d1a6000860182611c8b565b5060208301518482036020860152611d328282611cab565b9150506040830151611d476040860182611c8b565b506060830151611d5a6060860182611ce4565b506080830151611d6d6080860182611c8b565b5060a0830151611d8060a0860182611c8b565b5060c0830151611d9360c0860182611cf3565b508091505092915050565b6000611daa8383611d02565b905092915050565b6000602082019050919050565b6000611dca82611c5f565b611dd48185611c6a565b935083602082028501611de685611c7b565b8060005b85811015611e225784840389528151611e038582611d9e565b9450611e0e83611db2565b925060208a01995050600181019050611dea565b50829750879550505050505092915050565b60006020820190508181036000830152611e4e8184611dbf565b905092915050565b600060208284031215611e6c57611e6b611815565b5b6000611e7a84828501611a25565b91505092915050565b7f4e487b7100000000000000000000000000000000000000000000000000000000600052602260045260246000fd5b60006002820490506001821680611eca57607f821691505b602082108103611edd57611edc611e83565b5b50919050565b7f796f7520617265206e6f7420616e20696e766573746f72000000000000000000600082015250565b6000611f1960178361189c565b9150611f2482611ee3565b602082019050919050565b60006020820190508181036000830152611f4881611f0c565b9050919050565b7f796f7520646f6e2774206861766520656e6f7567682073686572657300000000600082015250565b6000611f85601c8361189c565b9150611f9082611f4f565b602082019050919050565b60006020820190508181036000830152611fb481611f78565b9050919050565b7f6e6f7420656e6f7567682066756e647300000000000000000000000000000000600082015250565b6000611ff160108361189c565b9150611ffc82611fbb565b602082019050919050565b6000602082019050818103600083015261202081611fe4565b9050919050565b7f4e487b7100000000000000000000000000000000000000000000000000000000600052601160045260246000fd5b60006120618261181f565b915061206c8361181f565b92508282101561207f5761207e612027565b5b828203905092915050565b60006120958261181f565b91506120a08361181f565b9250827fffffffffffffffffffffffffffffffffffffffffffffffffffffffffffffffff038211156120d5576120d4612027565b5b828201905092915050565b7f796f7520617265206e6f742061206d616e616765720000000000000000000000600082015250565b600061211660158361189c565b9150612121826120e0565b602082019050919050565b6000602082019050818103600083015261214581612109565b9050919050565b60006121578261181f565b91506121628361181f565b9250817fffffffffffffffffffffffffffffffffffffffffffffffffffffffffffffffff048311821515161561219b5761219a612027565b5b828202905092915050565b7f4e487b7100000000000000000000000000000000000000000000000000000000600052601260045260246000fd5b60006121e08261181f565b91506121eb8361181f565b9250826121fb576121fa6121a6565b5b828204905092915050565b7f6d616a6f7269747920646f6573206e6f7420737570706f727400000000000000600082015250565b600061223c60198361189c565b915061224782612206565b602082019050919050565b6000602082019050818103600083015261226b8161222f565b9050919050565b7f74696d65206973206f7665720000000000000000000000000000000000000000600082015250565b60006122a8600c8361189c565b91506122b382612272565b602082019050919050565b600060208201905081810360008301526122d78161229b565b9050919050565b7f73656e64206d6f7265207468616e203020657468657200000000000000000000600082015250565b600061231460168361189c565b915061231f826122de565b602082019050919050565b6000602082019050818103600083015261234381612307565b9050919050565b60006123558261181f565b91507fffffffffffffffffffffffffffffffffffffffffffffffffffffffffffffffff820361238757612386612027565b5b600182019050919050565b7f796f75206861766520616c726561647920766f74656420746869732070726f7060008201527f6f73616c00000000000000000000000000000000000000000000000000000000602082015250565b60006123ee60248361189c565b91506123f982612392565b604082019050919050565b6000602082019050818103600083015261241d816123e1565b9050919050565b7f766f74696e672054696d6520656e646564000000000000000000000000000000600082015250565b600061245a60118361189c565b915061246582612424565b602082019050919050565b600060208201905081810360008301526124898161244d565b9050919050565b7f497420697320616c726561647920657865637574656400000000000000000000600082015250565b60006124c660168361189c565b91506124d182612490565b602082019050919050565b600060208201905081810360008301526124f5816124b9565b9050919050565b7f4e487b7100000000000000000000000000000000000000000000000000000000600052604160045260246000fd5b7f4e487b7100000000000000000000000000000000000000000000000000000000600052603260045260246000fdfea2646970667358221220e66607142dfa71f4b06af5c223c6f151dd95618e73bb5bdf6784dc920a6072c364736f6c634300080d0033",
  "immutableReferences": {},
  "source": "// SPDX-License-Identifier: MIT\npragma solidity 0.8;\n\ncontract DAO {\n    // making struct\n\n    struct Proposal {\n        uint256 id;\n        string description;\n        uint256 amount;\n        address payable receipient;\n        uint256 votes;\n        uint256 end;\n        bool isExecuted;\n    }\n\n    // making mapping\n \n    mapping(address => bool) private isInvestor;\n    mapping(address => uint256) public numOfshares;\n    mapping(address => mapping(uint256 => bool)) public isVoted;\n    mapping(address => mapping(address => bool)) public withdrawlStatus;\n    address[] public investorList;\n    mapping(uint256 => Proposal) public proposals;\n\n    // making uints\n\n    uint256 public totalsShares;\n    uint256 public availableFunds;\n    uint256 public contributionTimeEnd;\n    uint256 public nextProposalId;\n    uint256 public voteTime;\n    uint256 public quorum;\n    address public manager;\n\n    constructor(\n        uint256 _contributionTimeEnd,\n        uint256 _voteTime,\n        uint256 _quorum\n    ) {\n        require(_quorum > 0 && _quorum < 100, \"not valid value\");\n        contributionTimeEnd = block.timestamp + (_contributionTimeEnd * 3600);\n        voteTime = _voteTime;\n        quorum = _quorum;\n        manager = msg.sender;\n    }\n\n    modifier onlyInvestor() {\n        require(isInvestor[msg.sender] == true, \"you are not an investor\");\n        _;\n    }\n    modifier onlyManager() {\n        require(manager == msg.sender, \"you are not a manager\");\n        _;\n    }\n\n    function contribution() public payable {\n        require(contributionTimeEnd >= block.timestamp, \"time is over\");\n        require(msg.value > 0, \"send more than 0 ether\");\n        isInvestor[msg.sender] = true;\n        numOfshares[msg.sender] += msg.value;\n        totalsShares += msg.value;\n        availableFunds += msg.value;\n        investorList.push(msg.sender);\n    }\n\n    function reedemShare(uint256 _amount) public onlyInvestor {\n        require(\n            numOfshares[msg.sender] >= _amount,\n            \"you don't have enough sheres\"\n        );\n        require(availableFunds >= _amount, \"not enough funds\");\n        numOfshares[msg.sender] -= _amount;\n\n        if (numOfshares[msg.sender] == 0) {\n            isInvestor[msg.sender] = false;\n        }\n\n        availableFunds -= _amount;\n        payable(msg.sender).transfer(_amount);\n    }\n\n    function transferShare(uint256 _amount, address _to) public onlyInvestor {\n        require(\n            numOfshares[msg.sender] >= _amount,\n            \"you don't have enough sheres\"\n        );\n        require(availableFunds >= _amount, \"not enough funds\");\n\n        numOfshares[msg.sender] -= _amount;\n        if (numOfshares[msg.sender] == 0) {\n            isInvestor[msg.sender] = false;\n        }\n        numOfshares[_to] += _amount;\n        isInvestor[_to] = true;\n        investorList.push(_to);\n    }\n\n    function createProposal(\n        string calldata _description,\n        uint256 _amount,\n        address payable _resceipient\n    ) public onlyManager {\n        require(availableFunds >= _amount, \"not enough funds\");\n        proposals[nextProposalId] = Proposal(\n            nextProposalId,\n            _description,\n            _amount,\n            _resceipient,\n            0,\n            block.timestamp + voteTime,\n            false\n        );\n        nextProposalId++;\n    }\n\n    function voteProposal(uint256 _proposalId) public onlyInvestor {\n        Proposal storage proposal = proposals[_proposalId];\n        require(\n            isVoted[msg.sender][_proposalId] == false,\n            \"you have already voted this proposal\"\n        );\n        require(proposal.end >= block.timestamp, \"voting Time ended\");\n        require(proposal.isExecuted == false, \"It is already executed\");\n\n        isVoted[msg.sender][_proposalId] = true;\n        proposal.votes += numOfshares[msg.sender];\n    }\n\n    function executeProposal(uint256 _proposalId) public onlyManager {\n        Proposal storage proposal = proposals[_proposalId];\n        require(\n            ((proposal.votes * 100) / totalsShares) >= quorum,\n            \"majority does not support\"\n        );\n        proposal.isExecuted = true;\n        availableFunds -= proposal.amount;\n        _transfer(proposal.amount, proposal.receipient);\n    }\n\n    function _transfer(uint256 _amount, address payable _receipient) private  {\n        _receipient.transfer(_amount);\n    }\n\n    // mapping to array\n    function ProposalLists() public view returns (Proposal[] memory) {\n        Proposal[] memory array = new Proposal[](nextProposalId - 1);\n        for (uint256 i = 1; i < nextProposalId; i++) {\n            array[i] = proposals[i];\n        }\n        return array;\n    }\n}\n",
  "sourcePath": "/home/matt/development/BlockChain/web3/react-js-web3/dao-project/client/truffle/contracts/dao.sol",
  "compiler": {
    "name": "solc",
    "version": "0.8.13+commit.abaa5c0e.Emscripten.clang"
  },
  "schemaVersion": "3.4.16",
  "updatedAt": "2023-11-30T06:06:35.708Z",
  "networkType": "ethereum",
  "devdoc": {
    "kind": "dev",
    "methods": {},
    "version": 1
  },
  "userdoc": {
    "kind": "user",
    "methods": {},
    "version": 1
  }
}